{
  "contractName": "RangeProofValidator",
  "abi": [
    {
      "constant": true,
      "inputs": [
        {
          "name": "lower",
          "type": "uint256"
        },
        {
          "name": "upper",
          "type": "uint256"
        },
        {
          "name": "commitment",
          "type": "bytes"
        },
        {
          "name": "proof",
          "type": "bytes"
        }
      ],
      "name": "validate",
      "outputs": [
        {
          "name": "",
          "type": "bool"
        }
      ],
      "payable": false,
      "stateMutability": "view",
      "type": "function"
    },
    {
      "constant": true,
      "inputs": [
        {
          "name": "sqrt",
          "type": "bytes"
        },
        {
          "name": "N",
          "type": "bytes"
        }
      ],
      "name": "validateFloorSqrt",
      "outputs": [
        {
          "name": "",
          "type": "bool"
        }
      ],
      "payable": false,
      "stateMutability": "view",
      "type": "function"
    },
    {
      "constant": true,
      "inputs": [
        {
          "name": "b",
          "type": "bytes"
        },
        {
          "name": "N",
          "type": "bytes"
        },
        {
          "name": "g",
          "type": "bytes"
        },
        {
          "name": "h",
          "type": "bytes"
        },
        {
          "name": "Einv",
          "type": "bytes"
        },
        {
          "name": "C",
          "type": "bytes"
        },
        {
          "name": "D1",
          "type": "bytes"
        },
        {
          "name": "D2",
          "type": "bytes"
        }
      ],
      "name": "validateCFT",
      "outputs": [
        {
          "name": "",
          "type": "bool"
        }
      ],
      "payable": false,
      "stateMutability": "view",
      "type": "function"
    },
    {
      "constant": true,
      "inputs": [
        {
          "name": "N",
          "type": "bytes"
        },
        {
          "name": "g",
          "type": "bytes"
        },
        {
          "name": "h_orInv1",
          "type": "bytes"
        },
        {
          "name": "h_orInv2",
          "type": "bytes"
        },
        {
          "name": "F",
          "type": "bytes"
        },
        {
          "name": "c",
          "type": "bytes"
        },
        {
          "name": "D",
          "type": "bytes"
        },
        {
          "name": "D1",
          "type": "bytes"
        },
        {
          "name": "D2",
          "type": "bytes"
        },
        {
          "name": "Einv",
          "type": "bytes"
        },
        {
          "name": "Finv",
          "type": "bytes"
        }
      ],
      "name": "validateSQ",
      "outputs": [
        {
          "name": "",
          "type": "bool"
        }
      ],
      "payable": false,
      "stateMutability": "view",
      "type": "function"
    },
    {
      "constant": true,
      "inputs": [
        {
          "name": "N",
          "type": "bytes"
        },
        {
          "name": "g1",
          "type": "bytes"
        },
        {
          "name": "g2",
          "type": "bytes"
        },
        {
          "name": "h1",
          "type": "bytes"
        },
        {
          "name": "h2",
          "type": "bytes"
        },
        {
          "name": "Einv",
          "type": "bytes"
        },
        {
          "name": "Finv",
          "type": "bytes"
        },
        {
          "name": "c",
          "type": "bytes"
        },
        {
          "name": "D",
          "type": "bytes"
        },
        {
          "name": "D1",
          "type": "bytes"
        },
        {
          "name": "D2",
          "type": "bytes"
        }
      ],
      "name": "validateEC",
      "outputs": [
        {
          "name": "",
          "type": "bool"
        }
      ],
      "payable": false,
      "stateMutability": "view",
      "type": "function"
    },
    {
      "constant": true,
      "inputs": [
        {
          "name": "a",
          "type": "bytes"
        },
        {
          "name": "a_inv",
          "type": "bytes"
        },
        {
          "name": "N",
          "type": "bytes"
        }
      ],
      "name": "validateModInv",
      "outputs": [
        {
          "name": "",
          "type": "bool"
        }
      ],
      "payable": false,
      "stateMutability": "view",
      "type": "function"
    },
    {
      "constant": true,
      "inputs": [
        {
          "name": "N",
          "type": "bytes"
        },
        {
          "name": "g",
          "type": "bytes"
        },
        {
          "name": "h",
          "type": "bytes"
        },
        {
          "name": "D1",
          "type": "bytes"
        },
        {
          "name": "D2",
          "type": "bytes"
        },
        {
          "name": "Einv",
          "type": "bytes"
        },
        {
          "name": "c",
          "type": "bytes"
        }
      ],
      "name": "restoreCommitment",
      "outputs": [
        {
          "name": "ret",
          "type": "bytes"
        }
      ],
      "payable": false,
      "stateMutability": "view",
      "type": "function"
    },
    {
      "constant": true,
      "inputs": [
        {
          "name": "f",
          "type": "bytes32"
        }
      ],
      "name": "loadHash",
      "outputs": [
        {
          "name": "ret",
          "type": "bytes"
        }
      ],
      "payable": false,
      "stateMutability": "view",
      "type": "function"
    },
    {
      "constant": true,
      "inputs": [
        {
          "name": "x",
          "type": "uint256"
        }
      ],
      "name": "bitLength",
      "outputs": [
        {
          "name": "",
          "type": "uint256"
        }
      ],
      "payable": false,
      "stateMutability": "view",
      "type": "function"
    },
    {
      "constant": true,
      "inputs": [
        {
          "name": "a",
          "type": "bytes"
        },
        {
          "name": "b",
          "type": "bytes"
        }
      ],
      "name": "compare",
      "outputs": [
        {
          "name": "cmp",
          "type": "int256"
        }
      ],
      "payable": false,
      "stateMutability": "view",
      "type": "function"
    },
    {
      "constant": true,
      "inputs": [
        {
          "name": "x",
          "type": "uint256"
        }
      ],
      "name": "toBigInt",
      "outputs": [
        {
          "name": "ret",
          "type": "bytes"
        }
      ],
      "payable": false,
      "stateMutability": "view",
      "type": "function"
    },
    {
      "constant": true,
      "inputs": [
        {
          "name": "x",
          "type": "bytes"
        }
      ],
      "name": "bignot",
      "outputs": [
        {
          "name": "",
          "type": "bytes"
        }
      ],
      "payable": false,
      "stateMutability": "view",
      "type": "function"
    },
    {
      "constant": true,
      "inputs": [
        {
          "name": "a",
          "type": "bytes"
        },
        {
          "name": "b",
          "type": "bytes"
        }
      ],
      "name": "bigadd",
      "outputs": [
        {
          "name": "ret",
          "type": "bytes"
        }
      ],
      "payable": false,
      "stateMutability": "view",
      "type": "function"
    },
    {
      "constant": true,
      "inputs": [
        {
          "name": "a",
          "type": "bytes"
        },
        {
          "name": "b",
          "type": "bytes"
        }
      ],
      "name": "bigsub",
      "outputs": [
        {
          "name": "ret",
          "type": "bytes"
        }
      ],
      "payable": false,
      "stateMutability": "view",
      "type": "function"
    },
    {
      "constant": true,
      "inputs": [
        {
          "name": "_a",
          "type": "bytes"
        },
        {
          "name": "_b",
          "type": "bytes"
        },
        {
          "name": "negative_b",
          "type": "bool"
        }
      ],
      "name": "addOrSub",
      "outputs": [
        {
          "name": "result",
          "type": "bytes"
        },
        {
          "name": "cmp",
          "type": "int256"
        }
      ],
      "payable": false,
      "stateMutability": "view",
      "type": "function"
    },
    {
      "constant": true,
      "inputs": [
        {
          "name": "x",
          "type": "bytes"
        }
      ],
      "name": "square",
      "outputs": [
        {
          "name": "ret",
          "type": "bytes"
        }
      ],
      "payable": false,
      "stateMutability": "view",
      "type": "function"
    },
    {
      "constant": true,
      "inputs": [
        {
          "name": "a",
          "type": "bytes"
        },
        {
          "name": "b",
          "type": "bytes"
        }
      ],
      "name": "multiply",
      "outputs": [
        {
          "name": "ret",
          "type": "bytes"
        }
      ],
      "payable": false,
      "stateMutability": "view",
      "type": "function"
    },
    {
      "constant": true,
      "inputs": [
        {
          "name": "a",
          "type": "bytes"
        },
        {
          "name": "b",
          "type": "bytes"
        },
        {
          "name": "N",
          "type": "bytes"
        }
      ],
      "name": "modmul",
      "outputs": [
        {
          "name": "ret",
          "type": "bytes"
        }
      ],
      "payable": false,
      "stateMutability": "view",
      "type": "function"
    },
    {
      "constant": true,
      "inputs": [
        {
          "name": "x",
          "type": "bytes"
        }
      ],
      "name": "trim",
      "outputs": [
        {
          "name": "y",
          "type": "bytes"
        }
      ],
      "payable": false,
      "stateMutability": "view",
      "type": "function"
    },
    {
      "constant": true,
      "inputs": [
        {
          "name": "x",
          "type": "bytes"
        },
        {
          "name": "bitShift",
          "type": "uint256"
        }
      ],
      "name": "shiftBitsRight",
      "outputs": [
        {
          "name": "y",
          "type": "bytes"
        }
      ],
      "payable": false,
      "stateMutability": "view",
      "type": "function"
    },
    {
      "constant": true,
      "inputs": [
        {
          "name": "x",
          "type": "bytes"
        },
        {
          "name": "n",
          "type": "int256"
        }
      ],
      "name": "shiftLeft",
      "outputs": [
        {
          "name": "ret",
          "type": "bytes"
        }
      ],
      "payable": false,
      "stateMutability": "view",
      "type": "function"
    },
    {
      "constant": true,
      "inputs": [
        {
          "name": "_x",
          "type": "bytes"
        },
        {
          "name": "_mod",
          "type": "bytes"
        }
      ],
      "name": "bmod",
      "outputs": [
        {
          "name": "ret",
          "type": "bytes"
        }
      ],
      "payable": false,
      "stateMutability": "view",
      "type": "function"
    },
    {
      "constant": true,
      "inputs": [
        {
          "name": "_base",
          "type": "bytes"
        },
        {
          "name": "_exp",
          "type": "bytes"
        },
        {
          "name": "_mod",
          "type": "bytes"
        }
      ],
      "name": "modexp",
      "outputs": [
        {
          "name": "",
          "type": "bytes"
        }
      ],
      "payable": false,
      "stateMutability": "view",
      "type": "function"
    }
  ],
  "bytecode": "0x6060604052341561000f57600080fd5b613b218061001e6000396000f300606060405260043610610133576000357c0100000000000000000000000000000000000000000000000000000000900463ffffffff1680630ff4a3161461013857806313c3dc50146101f057806317c91190146102905780632de10da01461038b57806342d03da91461069e57806344f94bda146107c957806368b54a3a146108e25780636d8e8182146109b857806381e79ac614610ad1578063830058ab14610b855780638b4c9e8314610c64578063905af81414610dc0578063976021da14610f1c57806398802e8f1461122f578063a4d662d814611305578063a59bc5e81461141e578063a61d7e3e14611537578063a6203b4114611601578063bcc0f6fa1461169d578063d1ca6c1214611773578063e41bbcf8146119bd578063f68f4e74146119f4578063ff27c47614611c5c575b600080fd5b341561014357600080fd5b6101d6600480803590602001908201803590602001908080601f0160208091040260200160405190810160405280939291908181526020018383808284378201915050505050509190803590602001908201803590602001908080601f01602080910402602001604051908101604052809392919081815260200183838082843782019150505050505091905050611d3b565b604051808215151515815260200191505060405180910390f35b34156101fb57600080fd5b610215600480803560001916906020019091905050611d96565b6040518080602001828103825283818151815260200191508051906020019080838360005b8381101561025557808201518184015260208101905061023a565b50505050905090810190601f1680156102825780820380516001836020036101000a031916815260200191505b509250505060405180910390f35b341561029b57600080fd5b610371600480803590602001908201803590602001908080601f0160208091040260200160405190810160405280939291908181526020018383808284378201915050505050509190803590602001908201803590602001908080601f0160208091040260200160405190810160405280939291908181526020018383808284378201915050505050509190803590602001908201803590602001908080601f01602080910402602001604051908101604052809392919081815260200183838082843782019150505050505091905050611dcf565b604051808215151515815260200191505060405180910390f35b341561039657600080fd5b610684600480803590602001908201803590602001908080601f0160208091040260200160405190810160405280939291908181526020018383808284378201915050505050509190803590602001908201803590602001908080601f0160208091040260200160405190810160405280939291908181526020018383808284378201915050505050509190803590602001908201803590602001908080601f0160208091040260200160405190810160405280939291908181526020018383808284378201915050505050509190803590602001908201803590602001908080601f0160208091040260200160405190810160405280939291908181526020018383808284378201915050505050509190803590602001908201803590602001908080601f0160208091040260200160405190810160405280939291908181526020018383808284378201915050505050509190803590602001908201803590602001908080601f0160208091040260200160405190810160405280939291908181526020018383808284378201915050505050509190803590602001908201803590602001908080601f0160208091040260200160405190810160405280939291908181526020018383808284378201915050505050509190803590602001908201803590602001908080601f0160208091040260200160405190810160405280939291908181526020018383808284378201915050505050509190803590602001908201803590602001908080601f0160208091040260200160405190810160405280939291908181526020018383808284378201915050505050509190803590602001908201803590602001908080601f0160208091040260200160405190810160405280939291908181526020018383808284378201915050505050509190803590602001908201803590602001908080601f01602080910402602001604051908101604052809392919081815260200183838082843782019150505050505091905050611df9565b604051808215151515815260200191505060405180910390f35b34156106a957600080fd5b610747600480803590602001908201803590602001908080601f0160208091040260200160405190810160405280939291908181526020018383808284378201915050505050509190803590602001908201803590602001908080601f016020809104026020016040519081016040528093929190818152602001838380828437820191505050505050919080351515906020019091905050611f1c565b6040518080602001838152602001828103825284818151815260200191508051906020019080838360005b8381101561078d578082015181840152602081019050610772565b50505050905090810190601f1680156107ba5780820380516001836020036101000a031916815260200191505b50935050505060405180910390f35b34156107d457600080fd5b610867600480803590602001908201803590602001908080601f0160208091040260200160405190810160405280939291908181526020018383808284378201915050505050509190803590602001908201803590602001908080601f01602080910402602001604051908101604052809392919081815260200183838082843782019150505050505091905050612127565b6040518080602001828103825283818151815260200191508051906020019080838360005b838110156108a757808201518184015260208101905061088c565b50505050905090810190601f1680156108d45780820380516001836020036101000a031916815260200191505b509250505060405180910390f35b34156108ed57600080fd5b61093d600480803590602001908201803590602001908080601f0160208091040260200160405190810160405280939291908181526020018383808284378201915050505050509190505061214b565b6040518080602001828103825283818151815260200191508051906020019080838360005b8381101561097d578082015181840152602081019050610962565b50505050905090810190601f1680156109aa5780820380516001836020036101000a031916815260200191505b509250505060405180910390f35b34156109c357600080fd5b610a56600480803590602001908201803590602001908080601f0160208091040260200160405190810160405280939291908181526020018383808284378201915050505050509190803590602001908201803590602001908080601f01602080910402602001604051908101604052809392919081815260200183838082843782019150505050505091905050612187565b6040518080602001828103825283818151815260200191508051906020019080838360005b83811015610a96578082015181840152602081019050610a7b565b50505050905090810190601f168015610ac35780820380516001836020036101000a031916815260200191505b509250505060405180910390f35b3415610adc57600080fd5b610b6f600480803590602001908201803590602001908080601f0160208091040260200160405190810160405280939291908181526020018383808284378201915050505050509190803590602001908201803590602001908080601f016020809104026020016040519081016040528093929190818152602001838380828437820191505050505050919050506121a6565b6040518082815260200191505060405180910390f35b3415610b9057600080fd5b610be9600480803590602001908201803590602001908080601f016020809104026020016040519081016040528093929190818152602001838380828437820191505050505050919080359060200190919050506121c0565b6040518080602001828103825283818151815260200191508051906020019080838360005b83811015610c29578082015181840152602081019050610c0e565b50505050905090810190601f168015610c565780820380516001836020036101000a031916815260200191505b509250505060405180910390f35b3415610c6f57600080fd5b610d45600480803590602001908201803590602001908080601f0160208091040260200160405190810160405280939291908181526020018383808284378201915050505050509190803590602001908201803590602001908080601f0160208091040260200160405190810160405280939291908181526020018383808284378201915050505050509190803590602001908201803590602001908080601f016020809104026020016040519081016040528093929190818152602001838380828437820191505050505050919050506122a8565b6040518080602001828103825283818151815260200191508051906020019080838360005b83811015610d85578082015181840152602081019050610d6a565b50505050905090810190601f168015610db25780820380516001836020036101000a031916815260200191505b509250505060405180910390f35b3415610dcb57600080fd5b610ea1600480803590602001908201803590602001908080601f0160208091040260200160405190810160405280939291908181526020018383808284378201915050505050509190803590602001908201803590602001908080601f0160208091040260200160405190810160405280939291908181526020018383808284378201915050505050509190803590602001908201803590602001908080601f016020809104026020016040519081016040528093929190818152602001838380828437820191505050505050919050506123b2565b6040518080602001828103825283818151815260200191508051906020019080838360005b83811015610ee1578082015181840152602081019050610ec6565b50505050905090810190601f168015610f0e5780820380516001836020036101000a031916815260200191505b509250505060405180910390f35b3415610f2757600080fd5b611215600480803590602001908201803590602001908080601f0160208091040260200160405190810160405280939291908181526020018383808284378201915050505050509190803590602001908201803590602001908080601f0160208091040260200160405190810160405280939291908181526020018383808284378201915050505050509190803590602001908201803590602001908080601f0160208091040260200160405190810160405280939291908181526020018383808284378201915050505050509190803590602001908201803590602001908080601f0160208091040260200160405190810160405280939291908181526020018383808284378201915050505050509190803590602001908201803590602001908080601f0160208091040260200160405190810160405280939291908181526020018383808284378201915050505050509190803590602001908201803590602001908080601f0160208091040260200160405190810160405280939291908181526020018383808284378201915050505050509190803590602001908201803590602001908080601f0160208091040260200160405190810160405280939291908181526020018383808284378201915050505050509190803590602001908201803590602001908080601f0160208091040260200160405190810160405280939291908181526020018383808284378201915050505050509190803590602001908201803590602001908080601f0160208091040260200160405190810160405280939291908181526020018383808284378201915050505050509190803590602001908201803590602001908080601f0160208091040260200160405190810160405280939291908181526020018383808284378201915050505050509190803590602001908201803590602001908080601f016020809104026020016040519081016040528093929190818152602001838380828437820191505050505050919050506123d6565b604051808215151515815260200191505060405180910390f35b341561123a57600080fd5b61128a600480803590602001908201803590602001908080601f016020809104026020016040519081016040528093929190818152602001838380828437820191505050505050919050506123fc565b6040518080602001828103825283818151815260200191508051906020019080838360005b838110156112ca5780820151818401526020810190506112af565b50505050905090810190601f1680156112f75780820380516001836020036101000a031916815260200191505b509250505060405180910390f35b341561131057600080fd5b6113a3600480803590602001908201803590602001908080601f0160208091040260200160405190810160405280939291908181526020018383808284378201915050505050509190803590602001908201803590602001908080601f01602080910402602001604051908101604052809392919081815260200183838082843782019150505050505091905050612436565b6040518080602001828103825283818151815260200191508051906020019080838360005b838110156113e35780820151818401526020810190506113c8565b50505050905090810190601f1680156114105780820380516001836020036101000a031916815260200191505b509250505060405180910390f35b341561142957600080fd5b6114bc600480803590602001908201803590602001908080601f0160208091040260200160405190810160405280939291908181526020018383808284378201915050505050509190803590602001908201803590602001908080601f01602080910402602001604051908101604052809392919081815260200183838082843782019150505050505091905050612509565b6040518080602001828103825283818151815260200191508051906020019080838360005b838110156114fc5780820151818401526020810190506114e1565b50505050905090810190601f1680156115295780820380516001836020036101000a031916815260200191505b509250505060405180910390f35b341561154257600080fd5b6115e7600480803590602001909190803590602001909190803590602001908201803590602001908080601f0160208091040260200160405190810160405280939291908181526020018383808284378201915050505050509190803590602001908201803590602001908080601f01602080910402602001604051908101604052809392919081815260200183838082843782019150505050505091905050612528565b604051808215151515815260200191505060405180910390f35b341561160c57600080fd5b61162260048080359060200190919050506127d7565b6040518080602001828103825283818151815260200191508051906020019080838360005b83811015611662578082015181840152602081019050611647565b50505050905090810190601f16801561168f5780820380516001836020036101000a031916815260200191505b509250505060405180910390f35b34156116a857600080fd5b6116f8600480803590602001908201803590602001908080601f01602080910402602001604051908101604052809392919081815260200183838082843782019150505050505091905050612810565b6040518080602001828103825283818151815260200191508051906020019080838360005b8381101561173857808201518184015260208101905061171d565b50505050905090810190601f1680156117655780820380516001836020036101000a031916815260200191505b509250505060405180910390f35b341561177e57600080fd5b6119a3600480803590602001908201803590602001908080601f0160208091040260200160405190810160405280939291908181526020018383808284378201915050505050509190803590602001908201803590602001908080601f0160208091040260200160405190810160405280939291908181526020018383808284378201915050505050509190803590602001908201803590602001908080601f0160208091040260200160405190810160405280939291908181526020018383808284378201915050505050509190803590602001908201803590602001908080601f0160208091040260200160405190810160405280939291908181526020018383808284378201915050505050509190803590602001908201803590602001908080601f0160208091040260200160405190810160405280939291908181526020018383808284378201915050505050509190803590602001908201803590602001908080601f0160208091040260200160405190810160405280939291908181526020018383808284378201915050505050509190803590602001908201803590602001908080601f0160208091040260200160405190810160405280939291908181526020018383808284378201915050505050509190803590602001908201803590602001908080601f01602080910402602001604051908101604052809392919081815260200183838082843782019150505050505091905050612888565b604051808215151515815260200191505060405180910390f35b34156119c857600080fd5b6119de600480803590602001909190505061299b565b6040518082815260200191505060405180910390f35b34156119ff57600080fd5b611be1600480803590602001908201803590602001908080601f0160208091040260200160405190810160405280939291908181526020018383808284378201915050505050509190803590602001908201803590602001908080601f0160208091040260200160405190810160405280939291908181526020018383808284378201915050505050509190803590602001908201803590602001908080601f0160208091040260200160405190810160405280939291908181526020018383808284378201915050505050509190803590602001908201803590602001908080601f0160208091040260200160405190810160405280939291908181526020018383808284378201915050505050509190803590602001908201803590602001908080601f0160208091040260200160405190810160405280939291908181526020018383808284378201915050505050509190803590602001908201803590602001908080601f0160208091040260200160405190810160405280939291908181526020018383808284378201915050505050509190803590602001908201803590602001908080601f016020809104026020016040519081016040528093929190818152602001838380828437820191505050505050919050506129e3565b6040518080602001828103825283818151815260200191508051906020019080838360005b83811015611c21578082015181840152602081019050611c06565b50505050905090810190601f168015611c4e5780820380516001836020036101000a031916815260200191505b509250505060405180910390f35b3415611c6757600080fd5b611cc0600480803590602001908201803590602001908080601f01602080910402602001604051908101604052809392919081815260200183838082843782019150505050505091908035906020019091905050612a2b565b6040518080602001828103825283818151815260200191508051906020019080838360005b83811015611d00578082015181840152602081019050611ce5565b50505050905090810190601f168015611d2d5780820380516001836020036101000a031916815260200191505b509250505060405180910390f35b6000611d45613aa5565b611d5884611d5360016127d7565b612187565b90506000611d6e611d688661214b565b856121a6565b13158015611d8d57506000611d8b611d858361214b565b856121a6565b135b91505092915050565b611d9e613aa5565b6020604051805910611dad5750595b9080825280601f01601f19166020018201604052509050816020820152919050565b600080611def611de08686866123b2565b611dea60016127d7565b6121a6565b1490509392505050565b6000611e03613aa5565b611e0b613aa5565b611e22611e1d8f8f8e8a8a8f8e6129e3565b612810565b9150611e3b611e368f8e8d8a898e8e6129e3565b612810565b90506000611f08611f0284846040518083805190602001908083835b602083101515611e7c5780518252602082019150602081019050602083039250611e57565b6001836020036101000a03801982511681845116808217855250505050505090500182805190602001908083835b602083101515611ecf5780518252602082019150602081019050602083039250611eaa565b6001836020036101000a038019825116818451168082178552505050505050905001925050506040518091039020611d96565b896121a6565b14925050509b9a5050505050505050505050565b611f24613aa5565b600080600080600080600080600080611f3b613aa5565b8d518f5111611f4b578d51611f4e565b8e515b604051805910611f5b5750595b9080825280601f01601f19166020018201604052509b5060208f01995060208e01985060208c01975060208f51038a01965060208e5103890195506000945060208c5189010393505b87841015156120605760009250600091508987101515611fc357865192505b8886101515611fd157855191505b8c1561200b5784828403038452828284031180611ff357508183038583850303115b611ffe576000612001565b60015b60ff16945061203b565b8482840101845282828401108061202757508183018583850101105b612032576000612035565b60015b60ff1694505b81831415156120495760019a505b602087039650602086039550602084039350611fa4565b600185141561210e578c156120b75761208a61207b8d6123fc565b61208560016127d7565b612187565b7fffffffffffffffffffffffffffffffffffffffffffffffffffffffffffffffff8090509b509b50612115565b60208c51016040518059106120c95750595b9080825280601f01601f1916602001820160405250905060208c0196506040810195506120f886888e51612b12565b600160208201528060018090509b509b50612115565b8b8b9b509b505b50505050505050505050935093915050565b61212f613aa5565b6121438361213d60016127d7565b846122a8565b905092915050565b612153613aa5565b61215b613aa5565b6121698360088551026121c0565b905061217f8361217960026127d7565b836122a8565b915050919050565b61218f613aa5565b61219b83836000611f1c565b508091505092915050565b60006121b483836001611f1c565b90508091505092915050565b6121c8613aa5565b60008060008060006101008060088a51028960ff01018115156121e757fe5b050294506000851315156122205760006040518059106122045750595b9080825280601f01601f1916602001820160405250955061229d565b60088581151561222c57fe5b0460405180591061223a5750595b9080825280601f01601f191660200182016040525095508551885110612261578551612264565b87515b935060208801925060208601915061227d828486612b12565b866008895102860303905061229a6122958783612a2b565b612810565b95505b505050505092915050565b6122b0613aa5565b60008060006122bd613aa5565b60006122c7613aa5565b895195508851945087519350836040518059106122e15750595b9080825280601f01601f1916602001820160405250925083858760600101019150816040518059106123105750595b9080825280601f01601f191660200182016040525090506020810186815285602082015284604082015286606082018860208e01600060046101c2f1868860600183018860208e01600060046101c2f190508586850383018760208d01600060046101c2f1905085602086018584600060056105465a03f190505050838587606001010181511415156123a257600080fd5b8296505050505050509392505050565b6123ba613aa5565b6123cd6123c78585612436565b83612127565b90509392505050565b60006123eb8c8c8a8d8d87898e8e8e8e611df9565b90509b9a5050505050505050505050565b612404613aa5565b6000806020840191508351820190505b8082101561242c578151198252602082019150612414565b8392505050919050565b61243e613aa5565b612446613aa5565b61244e613aa5565b612456613aa5565b61245e613aa5565b612466613aa5565b61246e613aa5565b612476613aa5565b61248060026127d7565b965061248c8a8a612187565b95506124988a8a612509565b94506124a88660088851026121c0565b93506124b58688866122a8565b92506124c28588866122a8565b91506124ce8383612509565b90506124fa817ffffffffffffffffffffffffffffffffffffffffffffffffffffffffffffffffe6121c0565b97505050505050505092915050565b612511613aa5565b61251d83836001611f1c565b508091505092915050565b6000612532613ab9565b61253a613ab9565b612542613acd565b6000806000806000612552613aa5565b60076040518059106125615750595b90808252806020026020018201604052801561259757816020015b612584613ae1565b81526020019060019003908161257c5790505b509850601f6040518059106125a95750595b9080825280602002602001820160405280156125df57816020015b6125cc613ae1565b8152602001906001900390816125c45790505b5097508b9650600093505b88518410156126cd57868481518110151561260157fe5b906020019060200201519250868481518110151561261b57fe5b9060200190602002015160018a5103851461265057876001860181518110151561264157fe5b90602001906020020151612653565b8c515b039150816040518059106126645750595b9080825280601f01601f191660200182016040525090506020810195508260208d010194506108008210151561269957600080fd5b6126a4868684612b12565b8089858151811015156126b357fe5b9060200190602002018190525083806001019450506125ea565b8a9650600093505b87518410156127b85786848151811015156126ec57fe5b906020019060200201519250868481518110151561270657fe5b906020019060200201516001895103851461273b57876001860181518110151561272c57fe5b9060200190602002015161273e565b8b515b0391508160405180591061274f5750595b9080825280601f01601f191660200182016040525090506020810195508260208c010194506120008210151561278457600080fd5b61278f868684612b12565b80888581518110151561279e57fe5b9060200190602002018190525083806001019450506126d5565b6127c48e8e8b8b612b3d565b9950505050505050505050949350505050565b6127df613aa5565b60206040518059106127ee5750595b9080825280601f01601f19166020018201604052509050816020820152919050565b612818613aa5565b6000806000806020865181151561282b57fe5b0614151561283857600080fd5b60019250600090505b8451811015612875576020810185015115925082156128655760208201915061286a565b612875565b602081019050612841565b8185019350818551038452505050919050565b6000612892613aa5565b61289a613aa5565b6128b7866128b26128ab60016127d7565b60806121c0565b612127565b91506128d06128cb8b8b8b89898d896129e3565b612810565b905060006128e7866128e2858f612436565b6121a6565b1215801561290c57506000612909866129048e60286080016121c0565b6121a6565b13155b801561298b57506000612989612983836040518082805190602001908083835b602083101515612951578051825260208201915060208101905060208303925061292c565b6001836020036101000a0380198251168184511680821785525050505050509050019150506040518091039020611d96565b886121a6565b145b9250505098975050505050505050565b600080600060019150600090505b6101008110156129d657818410156129c3578092506129dc565b60028202915080806001019150506129a9565b61010092505b5050919050565b6129eb613aa5565b612a1e612a0d6129fc89888c6122a8565b612a0789888d6122a8565b8b6123b2565b612a1885858c6122a8565b8a6123b2565b9050979650505050505050565b612a33613aa5565b6000806000806000806000881415612a4d57889650612b06565b60ff8811151515612a5d57600080fd5b600060208a51811515612a6c57fe5b06141515612a7957600080fd5b8851604051805910612a885750595b9080825280601f01601f1916602001820160405250965060018860019060020a02039550876101000360020a94508760020a9350600092505b8851831015612b055783602084018a0151871916049150600083141515612aef5784838a0151871602820191505b6020830187019050818152602083019250612ac1565b5b50505050505092915050565b5b602081101515612b385781518352602083019250602082019150602081039050612b13565b505050565b6000612b47613ab9565b6000600b604051805910612b585750595b908082528060200260200182016040528015612b8e57816020015b612b7b613ae1565b815260200190600190039081612b735790505b509150612b9c87870361299b565b6001602860800101600202019050612bb3876127d7565b826000815181101515612bc257fe5b90602001906020020181905250612bd8866127d7565b826001815181101515612be757fe5b90602001906020020181905250612c41856000815181101515612c0657fe5b90602001906020020151612c23612c1d60016127d7565b846121c0565b876001815181101515612c3257fe5b906020019060200201516122a8565b856000815181101515612c5057fe5b90602001906020020181905250612caa856004815181101515612c6f57fe5b90602001906020020151612c8c612c8660016127d7565b846121c0565b876001815181101515612c9b57fe5b906020019060200201516122a8565b856004815181101515612cb957fe5b90602001906020020181905250612ce8826000815181101515612cd857fe5b90602001906020020151826121c0565b826000815181101515612cf757fe5b90602001906020020181905250612d26826001815181101515612d1657fe5b90602001906020020151826121c0565b826001815181101515612d3557fe5b90602001906020020181905250612d59612d508888036127d7565b600283016121c0565b826004815181101515612d6857fe5b90602001906020020181905250612daf84601e815181101515612d8757fe5b90602001906020020151836004815181101515612da057fe5b90602001906020020151611d3b565b1515612dbe5760009250613a9b565b612e4b856000815181101515612dd057fe5b90602001906020020151612e2d876005815181101515612dec57fe5b90602001906020020151856000815181101515612e0557fe5b90602001906020020151896001815181101515612e1e57fe5b906020019060200201516122a8565b876001815181101515612e3c57fe5b906020019060200201516123b2565b826002815181101515612e5a57fe5b90602001906020020181905250612ef4612ebd866002815181101515612e7c57fe5b90602001906020020151846001815181101515612e9557fe5b90602001906020020151886001815181101515612eae57fe5b906020019060200201516122a8565b866004815181101515612ecc57fe5b90602001906020020151876001815181101515612ee557fe5b906020019060200201516123b2565b826003815181101515612f0357fe5b90602001906020020181905250612f63856000815181101515612f2257fe5b90602001906020020151866004815181101515612f3b57fe5b90602001906020020151876001815181101515612f5457fe5b90602001906020020151611dcf565b1515612f725760009250613a9b565b612fc5856002815181101515612f8457fe5b90602001906020020151866005815181101515612f9d57fe5b90602001906020020151876001815181101515612fb657fe5b90602001906020020151611dcf565b1515612fd45760009250613a9b565b613027856003815181101515612fe657fe5b90602001906020020151866006815181101515612fff57fe5b9060200190602002015187600181518110151561301857fe5b90602001906020020151611dcf565b15156130365760009250613a9b565b61308984600081518110151561304857fe5b9060200190602002015185601281518110151561306157fe5b9060200190602002015187600181518110151561307a57fe5b90602001906020020151611dcf565b15156130985760009250613a9b565b6130eb8460018151811015156130aa57fe5b906020019060200201518560138151811015156130c357fe5b906020019060200201518760018151811015156130dc57fe5b90602001906020020151611dcf565b15156130fa5760009250613a9b565b61314d84600281518110151561310c57fe5b9060200190602002015185601481518110151561312557fe5b9060200190602002015187600181518110151561313e57fe5b90602001906020020151611dcf565b151561315c5760009250613a9b565b6131af84600781518110151561316e57fe5b9060200190602002015185601581518110151561318757fe5b906020019060200201518760018151811015156131a057fe5b90602001906020020151611dcf565b15156131be5760009250613a9b565b6132118260028151811015156131d057fe5b906020019060200201518560128151811015156131e957fe5b9060200190602002015187600181518110151561320257fe5b906020019060200201516123b2565b82600281518110151561322057fe5b9060200190602002018190525061328082600381518110151561323f57fe5b9060200190602002015185601381518110151561325857fe5b9060200190602002015187600181518110151561327157fe5b906020019060200201516123b2565b82600381518110151561328f57fe5b906020019060200201819052506132ef8260028151811015156132ae57fe5b906020019060200201518560168151811015156132c757fe5b906020019060200201518760018151811015156132e057fe5b90602001906020020151611dcf565b15156132fe5760009250613a9b565b61335182600381518110151561331057fe5b9060200190602002015185601781518110151561332957fe5b9060200190602002015187600181518110151561334257fe5b90602001906020020151611dcf565b15156133605760009250613a9b565b600061338d85601881518110151561337457fe5b9060200190602002015161338860016127d7565b6121a6565b146133b0578460038151811015156133a157fe5b906020019060200201516133ca565b8460068151811015156133bf57fe5b906020019060200201515b8260058151811015156133d957fe5b9060200190602002018190525060006134138560198151811015156133fa57fe5b9060200190602002015161340e60016127d7565b6121a6565b146134365784600381518110151561342757fe5b90602001906020020151613450565b84600681518110151561344557fe5b906020019060200201515b82600681518110151561345f57fe5b90602001906020020181905250600061349985601a81518110151561348057fe5b9060200190602002015161349460016127d7565b6121a6565b146134bc578460038151811015156134ad57fe5b906020019060200201516134d6565b8460068151811015156134cb57fe5b906020019060200201515b8260078151811015156134e557fe5b90602001906020020181905250600061351f85601b81518110151561350657fe5b9060200190602002015161351a60016127d7565b6121a6565b146135425784600381518110151561353357fe5b9060200190602002015161355c565b84600681518110151561355157fe5b906020019060200201515b82600881518110151561356b57fe5b9060200190602002018190525060006135a585601c81518110151561358c57fe5b906020019060200201516135a060016127d7565b6121a6565b146135c8578460038151811015156135b957fe5b906020019060200201516135e2565b8460068151811015156135d757fe5b906020019060200201515b8260098151811015156135f157fe5b90602001906020020181905250600061362b85601d81518110151561361257fe5b9060200190602002015161362660016127d7565b6121a6565b1461364e5784600381518110151561363f57fe5b90602001906020020151613668565b84600681518110151561365d57fe5b906020019060200201515b82600a81518110151561367757fe5b9060200190602002018190525061379f85600181518110151561369657fe5b906020019060200201518660028151811015156136af57fe5b906020019060200201518460058151811015156136c857fe5b906020019060200201518560068151811015156136e157fe5b906020019060200201518860028151811015156136fa57fe5b9060200190602002015189600381518110151561371357fe5b906020019060200201518a600481518110151561372c57fe5b906020019060200201518b600581518110151561374557fe5b906020019060200201518c600681518110151561375e57fe5b906020019060200201518d601281518110151561377757fe5b906020019060200201518e601481518110151561379057fe5b906020019060200201516123d6565b15156137ae5760009250613a9b565b6138c98560018151811015156137c057fe5b906020019060200201518660028151811015156137d957fe5b906020019060200201518460078151811015156137f257fe5b9060200190602002015185600881518110151561380b57fe5b9060200190602002015188600781518110151561382457fe5b9060200190602002015189600881518110151561383d57fe5b906020019060200201518a600981518110151561385657fe5b906020019060200201518b600a81518110151561386f57fe5b906020019060200201518c600b81518110151561388857fe5b906020019060200201518d60138151811015156138a157fe5b906020019060200201518e60158151811015156138ba57fe5b906020019060200201516123d6565b15156138d85760009250613a9b565b6139a884601e8151811015156138ea57fe5b9060200190602002015186600181518110151561390357fe5b9060200190602002015187600281518110151561391c57fe5b9060200190602002015185600981518110151561393557fe5b9060200190602002015188601681518110151561394e57fe5b9060200190602002015189600c81518110151561396757fe5b906020019060200201518a600d81518110151561398057fe5b906020019060200201518b600e81518110151561399957fe5b90602001906020020151612888565b15156139b75760009250613a9b565b613a8784601e8151811015156139c957fe5b906020019060200201518660018151811015156139e257fe5b906020019060200201518760028151811015156139fb57fe5b9060200190602002015185600a815181101515613a1457fe5b90602001906020020151886017815181101515613a2d57fe5b9060200190602002015189600f815181101515613a4657fe5b906020019060200201518a6010815181101515613a5f57fe5b906020019060200201518b6011815181101515613a7857fe5b90602001906020020151612888565b1515613a965760009250613a9b565b600192505b5050949350505050565b602060405190810160405280600081525090565b602060405190810160405280600081525090565b602060405190810160405280600081525090565b6020604051908101604052806000815250905600a165627a7a72305820a768fb3ce6b9f138090641d891b8ad0330f605a480d032bec9a1fdfe8f1942280029",
  "source": "pragma solidity ^0.4.18;\n\ncontract RangeProofValidator {\n\n    int constant t = 128;\n    int constant l = 40;\n\n    // Convert bytes to array of big integers\n    function validate(uint lower, uint upper, bytes commitment, bytes proof) view returns (bool) {\n        bytes[] memory com = new bytes[](7);\n        bytes[] memory prf = new bytes[](31);\n        uint[] memory index;\n        uint destPointer;\n        uint srcPointer;\n\n        assembly { index := commitment }\n        for (uint i = 0; i < com.length; i++) {\n            uint start = index[i];\n            uint length = (i == com.length - 1 ? commitment.length : index[i+1]) - index[i];\n            bytes memory part = new bytes(length);\n            assembly {\n                destPointer := add(part, 32)\n                srcPointer := add(add(commitment, 32), start)\n            }\n            require(length < 2048);\n            copyWords(destPointer, srcPointer, length);\n            com[i] = part;\n        }\n\n        assembly { index := proof }\n\n        for ( i = 0; i < prf.length; i++) {\n            start = index[i];\n            length = (i == prf.length - 1 ? proof.length : index[i+1]) - index[i];\n            part = new bytes(length);\n            assembly {\n                destPointer := add(part, 32)\n                srcPointer := add(add(proof, 32), start)\n            }\n            require(length < 8192);\n            copyWords(destPointer, srcPointer, length);\n            prf[i] = part;\n        }\n\n        return validateProof(lower, upper, com, prf);\n    }\n\n    function validateProof(uint lower, uint upper, bytes[] com, bytes[] prf) private view returns (bool) {\n        // Stack too deep so store in memory: tmp = (a, b, cLeft, cRight)\n        bytes[] memory tmp = new bytes[](11);\n\n        int T = 2 * (t + l + 1) + int(bitLength(upper - lower));\n        tmp[0] = toBigInt(lower);\n        tmp[1] = toBigInt(upper);\n\n        // Scale for Proof without Tolerance\n        com[0] = modexp(com[0], shiftLeft(toBigInt(1), T), com[1]); // cPrime\n        com[4] = modexp(com[4], shiftLeft(toBigInt(1), T), com[1]);\n        tmp[0] = shiftLeft(tmp[0], T);\n        tmp[1] = shiftLeft(tmp[1], T);\n        tmp[4] = shiftLeft(toBigInt(upper - lower), T + 2);\n        if (!validateFloorSqrt(prf[30], tmp[4])) {return false;} // for maxCommitment\n\n        // Step 2\n        // c / g^a = c * (1/g)^a\n        tmp[2] = modmul(com[0], modexp(com[5], tmp[0], com[1]), com[1]);\n\n        // g^b / c = g^b * (1/c)\n        tmp[3] = modmul(modexp(com[2], tmp[1], com[1]), com[4], com[1]);\n\n        // Return false if invalid inverse is provided\n        if (!validateModInv(com[0], com[4], com[1])) {return false;}\n        if (!validateModInv(com[2], com[5], com[1])) {return false;}\n        if (!validateModInv(com[3], com[6], com[1])) {return false;}\n        if (!validateModInv(prf[0], prf[18], com[1])) {return false;}\n        if (!validateModInv(prf[1], prf[19], com[1])) {return false;}\n        if (!validateModInv(prf[2], prf[20], com[1])) {return false;}\n        if (!validateModInv(prf[7], prf[21], com[1])) {return false;}\n\n        // Step 6\n        tmp[2] = modmul(tmp[2], prf[18], com[1]);\n        tmp[3] = modmul(tmp[3], prf[19], com[1]);\n\n        // Return false if invalid inverse is provided\n        if (!validateModInv(tmp[2], prf[22], com[1])) {return false;}\n        if (!validateModInv(tmp[3], prf[23], com[1])) {return false;}\n\n        // Get rid of negative exponents D1, D2\n        tmp[5] = compare(prf[24], toBigInt(1)) == 0 ? com[6] : com[3];\n        tmp[6] = compare(prf[25], toBigInt(1)) == 0 ? com[6] : com[3];\n        tmp[7] = compare(prf[26], toBigInt(1)) == 0 ? com[6] : com[3];\n        tmp[8] = compare(prf[27], toBigInt(1)) == 0 ? com[6] : com[3];\n        tmp[9] = compare(prf[28], toBigInt(1)) == 0 ? com[6] : com[3];\n        tmp[10] = compare(prf[29], toBigInt(1)) == 0 ? com[6] : com[3];\n\n        // Step 7\n        if (!validateSQ(com[1], com[2], tmp[5], tmp[6], prf[2], prf[3], prf[4], prf[5], prf[6], prf[18], prf[20])) {return false;}\n        if (!validateSQ(com[1], com[2], tmp[7], tmp[8], prf[7], prf[8], prf[9], prf[10], prf[11], prf[19], prf[21])) {return false;}\n\n        // Step 8\n        if (!validateCFT(prf[30], com[1], com[2], tmp[9], prf[22], prf[12], prf[13], prf[14])) {return false;}\n        if (!validateCFT(prf[30], com[1], com[2], tmp[10], prf[23], prf[15], prf[16], prf[17])) {return false;}\n\n        return true;\n    }\n\n    function validateFloorSqrt(bytes memory sqrt, bytes memory N) view returns (bool) {\n        bytes memory sqrtPlus = bigadd(sqrt, toBigInt(1));\n        return compare(square(sqrt), N) <= 0 && compare(square(sqrtPlus), N) > 0;\n    }\n\n    function validateCFT(bytes memory b, bytes memory N, bytes memory g, bytes memory h, bytes memory Einv, bytes memory C,\n        bytes memory D1, bytes memory D2) view returns (bool) {\n\n        bytes memory c = bmod(C, shiftLeft(toBigInt(1), t));\n        bytes memory W = trim(restoreCommitment(N, g, h, D1, D2, Einv, c));\n\n        return compare(D1, multiply(c, b)) >= 0 &&\n            compare(D1, shiftLeft(b, t + l)) <= 0 &&\n            compare(loadHash(keccak256(W)), C) == 0;\n    }\n\n    function validateSQ(bytes memory N, bytes memory g, bytes memory h_orInv1, bytes memory h_orInv2, bytes memory F,\n        bytes memory c, bytes memory D, bytes memory D1, bytes memory D2, bytes memory Einv, bytes memory Finv) view returns (bool) {\n\n        return validateEC(N, g, F, h_orInv1, h_orInv2, Finv, Einv, c, D, D1, D2);\n    }\n\n    function validateEC(bytes memory N, bytes memory g1, bytes memory g2, bytes memory h1, bytes memory h2,\n        bytes memory Einv, bytes memory Finv, bytes memory c, bytes memory D, bytes memory D1, bytes memory D2) view returns (bool) {\n\n        bytes memory W1 = trim(restoreCommitment(N, g1, h1, D, D1, Einv, c));\n        bytes memory W2 = trim(restoreCommitment(N, g2, h2, D, D2, Finv, c));\n\n        return compare(loadHash(keccak256(W1, W2)), c) == 0;\n    }\n\n    function validateModInv(bytes memory a, bytes memory a_inv, bytes memory N) view returns (bool) {\n        return compare(modmul(a, a_inv, N), toBigInt(1)) == 0;\n    }\n\n    function restoreCommitment(bytes memory N, bytes memory g, bytes memory h, bytes memory D1,\n        bytes memory D2, bytes memory Einv, bytes memory c) view returns (bytes memory ret) {\n\n        return modmul(modmul(modexp(g, D1, N), modexp(h, D2, N), N), modexp(Einv, c, N), N);\n    }\n\n    function loadHash(bytes32 f) view returns (bytes memory ret) {\n        ret = new bytes(32);\n        assembly {mstore(add(ret, 32), f) }\n    }\n\n    function bitLength(uint x) view returns (uint) {\n        uint test = 1;\n        for (uint i = 0; i < 256; i++) {\n            if (x < test) return i;\n            test = test * 2;\n        }\n        return 256;\n    }\n\n    function compare(bytes memory a, bytes memory b) view returns (int cmp) {\n        (, cmp) = addOrSub(a, b, true);\n    }\n\n    function toBigInt(uint x) view returns (bytes memory ret) {\n        ret = new bytes(32);\n        assembly { mstore(add(ret, 32), x) }\n    }\n\n    function bignot(bytes memory x) view returns (bytes memory) {\n        uint pointer;\n        uint pointerEnd;\n        assembly {\n            pointer := add(x, 32)\n            pointerEnd := add(pointer, mload(x))\n        }\n        for (; pointer < pointerEnd; pointer += 32) {\n            assembly {\n                mstore(pointer, not(mload(pointer)))\n            }\n        }\n        return x;\n    }\n\n    function bigadd(bytes memory a, bytes memory b) view returns (bytes memory ret) {\n        (ret, ) = addOrSub(a, b, false);\n    }\n\n    function bigsub(bytes memory a, bytes memory b) view returns (bytes memory ret) {\n        (ret, ) = addOrSub(a, b, true);\n    }\n\n    function addOrSub(bytes memory _a, bytes memory _b, bool negative_b) view returns (bytes memory result, int cmp) {\n        result = new bytes(_a.length > _b.length ? _a.length : _b.length);\n\n        uint aStart;\n        uint bStart;\n        uint rStart;\n        assembly {\n            aStart := add(_a, 32)\n            bStart := add(_b, 32)\n            rStart := add(result, 32)\n        }\n        uint aPos = aStart + (_a.length - 32);\n        uint bPos = bStart + (_b.length - 32);\n        uint carry = 0;\n\n        for(uint rPos = rStart + result.length - 32; rPos >= rStart; rPos -= 32) {\n            uint aPart = 0;\n            uint bPart = 0;\n            if (aPos >= aStart) {\n                assembly { aPart := mload(aPos) }\n            }\n            if (bPos >= bStart) {\n                assembly { bPart := mload(bPos) }\n            }\n            if (negative_b) {\n                assembly {\n                    mstore(rPos, sub(sub(aPart, bPart), carry))\n                }\n                carry = (aPart - bPart > aPart || aPart - bPart - carry > aPart - bPart) ? 1 : 0;\n            } else {\n                assembly {\n                    mstore(rPos, add(add(aPart, bPart), carry))\n                }\n                carry = (aPart + bPart < aPart || aPart + bPart + carry < aPart + bPart) ? 1 : 0;\n            }\n            if (aPart != bPart) cmp = 1;\n            aPos -= 32;\n            bPos -= 32;\n        }\n\n        // If overflow we have to add 1 in front\n        if (carry == 1) {\n\n            if (negative_b) return (bigadd(bignot(result), toBigInt(1)), -1);\n\n            bytes memory result2 = new bytes(result.length + 32);\n            assembly {\n                aPos := add(result, 32)\n                bPos := add(result2, 64)\n            }\n            copyWords(bPos, aPos, result.length);\n            assembly {\n                mstore(add(result2, 32), 1)\n            }\n            return (result2, 1);\n        }\n        return (result, cmp);\n    }\n\n    function square(bytes memory x) view returns (bytes memory ret) {\n        bytes memory largeN = shiftLeft(x, int(x.length) * 8);\n        return modexp(x, toBigInt(2), largeN);\n    }\n\n    // ab = ((a+b)^2-(a-b)^2) / 4\n    function multiply(bytes memory a, bytes memory b) view returns (bytes memory ret) {\n        bytes memory two = toBigInt(2);\n        bytes memory sum = bigadd(a, b); // a+b\n        bytes memory diff = bigsub(a, b); // abs(a-b)\n        bytes memory largeN = shiftLeft(sum, int(sum.length) * 8);\n        bytes memory sumSquared = modexp(sum, two, largeN); //(a+b)^2\n        bytes memory diffSquared = modexp(diff, two, largeN); //(a-b)^2\n        bytes memory ab4 = bigsub(sumSquared, diffSquared);\n        ret = shiftLeft(ab4, -2);\n    }\n\n    function modmul(bytes memory a, bytes memory b, bytes memory N) view returns (bytes memory ret) {\n        return bmod(multiply(a,b), N);\n    }\n\n    function copyWords(uint dest, uint src, uint len) private view {\n        for(; len >= 32; len -= 32) {\n            assembly {\n                mstore(dest, mload(src))\n            }\n            dest += 32;\n            src += 32;\n        }\n    }\n\n    function trim(bytes memory x) view returns (bytes memory y) {\n        require(x.length % 32 == 0);\n        bool isZero = true;\n        uint zeroCount;\n        for (uint i = 0; i < x.length; i += 32) {\n            assembly {\n                isZero := iszero(mload(add(x, add(i, 32))))\n            }\n            if (isZero) {\n                zeroCount += 32;\n            } else {\n                break;\n            }\n        }\n        assembly {\n            y := add(x, zeroCount)\n            mstore(y, sub(mload(x), zeroCount))\n        }\n    }\n\n    function shiftBitsRight(bytes x, uint bitShift) view returns (bytes memory y) {\n        if (bitShift == 0) return x;\n        require(bitShift <= 255);\n        require(x.length % 32 == 0);\n\n        y = new bytes(x.length);\n\n        uint maskRight = (uint(1) << bitShift) - 1; // mask to get only the lower X bits\n        uint multiplyRight = 2 ** (256 - bitShift);\n        uint divideRemaining = 2 ** bitShift;\n        for (uint i = 0; i < x.length; i += 32) {\n            uint value;\n            uint _dst;\n            assembly {\n                value := div(and(not(maskRight), mload(add(x, add(i, 32)))), divideRemaining)\n            }\n            if (i != 0) {\n                // What moved from the previous word to this one\n                assembly {\n                    value := add(value, mul(and(maskRight, mload(add(x, i))), multiplyRight))\n                }\n            }\n            assembly {\n                _dst := add(y, add(i, 32))\n                mstore(_dst, value)\n            }\n        }\n    }\n\n    function shiftLeft(bytes memory x, int n) view returns (bytes memory ret) {\n        // New bitlength = x.length * 8 + n; round up to multiple of 256\n        int newBitLength = ((255 + n + int(x.length * 8)) / 256) * 256;\n        if (newBitLength <= 0) return new bytes(0);\n\n        ret = new bytes(uint(newBitLength) / 8);\n        uint copy_len = x.length < ret.length ? x.length : ret.length;\n        uint _input;\n        uint _output;\n        assembly {\n            _input := add(x, 32)\n            _output := add(ret, 32)\n        }\n\n        copyWords(_output, _input, copy_len);\n\n        // Apply bit shift (between 0 and 255 to the right)\n        uint bitShift = uint(newBitLength - int(x.length * 8) - n);\n        ret = trim(shiftBitsRight(ret, bitShift));\n    }\n\n    function bmod(bytes memory _x, bytes memory _mod) view returns (bytes memory ret) {\n        return modexp(_x, toBigInt(1), _mod);\n    }\n\n    // Wrapper for built-in bigint_modexp, modified from https://gist.github.com/lionello/ee285ea220dc64517499c971ff92a2a5\n    function modexp(bytes memory _base, bytes memory _exp, bytes memory _mod) view returns (bytes memory) {\n\n        uint256 bl = _base.length;\n        uint256 el = _exp.length;\n        uint256 ml = _mod.length;\n        bytes memory ret = new bytes(ml);\n        uint inputSize = 96 + bl + el + ml;\n        bytes memory rawInput = new bytes(inputSize);\n\n        assembly {\n            let freemem := add(rawInput, 32)\n            mstore(freemem, bl)\n            mstore(add(freemem,32), el)\n            mstore(add(freemem,64), ml)\n\n            let x := call(450, 0x4, 0, add(_base,32), bl, add(freemem,96), bl)\n            x := call(450, 0x4, 0, add(_exp,32), el, add(freemem,add(96, bl)), el)\n            x := call(450, 0x4, 0, add(_mod,32), ml, add(freemem,sub(inputSize, ml)), ml)\n\n            x := call(sub(gas, 1350), 0x5, 0, freemem, inputSize, add(ret, 32), ml)\n        }\n\n        require(rawInput.length == 96 + bl + el + ml);\n        return ret;\n    }\n}",
  "sourcePath": "/Users/alaanrahim/Desktop/projects/zkp-range/solidity/contracts/RangeProofValidator.sol",
  "compiler": {
    "name": "solc",
    "version": "0.4.18+commit.9cf6e910.Emscripten.clang"
  },
  "schemaVersion": "3.0.10",
  "updatedAt": "2019-06-03T13:30:02.386Z",
  "devdoc": {
    "methods": {}
  },
  "userdoc": {
    "methods": {}
  }
}